:020000003F2B94
:10000800FF00030E8301EF000A088316B9008A0176
:1000180083128C1D10288C11831639088A008312CC
:0A0028006F0E8300FF0E7F0E09002B
:06003200000000000800C0
:0E003800213083120313FD00FD0B2028080069
:100046000F3083120313FC004730FD00FD0B2928F7
:0A005600FC0B292800000000080040
:1000600083160313C31B3728831288113928831280
:1000700088158316431B3F288312081141288312D9
:1000800008158316C31A472883128810492883123B
:1000900088148316431A4F2883120810512883129C
:1000A0000814831638185728831208165928831203
:1000B00008128816192088128316C3196228831221
:1000C0008811642883128815831643196A288312BD
:1000D00008116C28831208158316C318722883121E
:1000E0008810742883128814831643187A28831280
:1000F00008107C288312081483163818822883126B
:10010000081684288312081288161920881283166C
:0C011000381C8C2823208D281C2008009F
:10011C0083160313141998281F301105F000031DC2
:08012C00982899288E2808008C
:100134008E2083128C118316111483128C19A32818
:060144009F288C11080049
:10014A008E2083128C118316111583128C19AE28F6
:06015A00AA288C11080028
:100160008E2083128C118316911483128C19B92856
:06017000B5288C11080007
:100176008316031338104208C30030208316381440
:0201860008006F
:1001880083160313BF013F083E07840000080319C4
:10019800D5283F083E0784000008C200BB20BF0ADC
:0401A800C72808005C
:1001AC0083120313F8010830FC00700DF80D74086D
:1001BC00F8020318E328F8070310F00DFC0BDB28FA
:0201CC00080029
:1001CE00831203137008F100F0010830FC0071086F
:1001DE00F40C0318F628FC0BEF28F1010034031081
:1001EE00FB28F40C0318F107F10CF00CFC0BF828AB
:0201FE000800F7
:100200009A2083163E08F000F00D701070088312DB
:1002100093008E203F08831293008E2040088312A3
:080220009300A5208E200800C8
:100228002629803083160313BE003929C030BE004A
:1002380039299430BE003929D430BE00392980309C
:10024800BE003929831603133E08013A03191529FC
:100258003E08023A03191A293E08033A03191D29D0
:100268003E08043A0319202923293F03F0003E08D9
:10027800F0077008BE007008C300302083163810DD
:10028800C1014108400784000008031953294108A7
:10029800400784000008C200BB20C10A4529381461
:0202A80008004C
:1002AA0083160313C0019A2083163E08F000F00D4E
:1002BA0070107008831293008E203F0883129300F7
:1002CA00B02083163E08F000F00D70100130700463
:1002DA00831293008E2091158E20831213088316A1
:1002EA00C00091161116111E7B2978299112A5209A
:0802FA0083164008F000080023
:100302008316031388120812081088100811881126
:1003120083128812081288110811881008102320ED
:1003220023202320881408148816192088122320D9
:100332008816192088122320881619208812232053
:10034200081088161920881223208816192088126E
:1003520088108815881619208812232088110814FD
:10036200881619208812081088161920881223204E
:10037200881619208812081488161920881223203A
:100382000810881619208812881508158814081470
:0E0392008816192088122320831638140800BC
:1003A00083160313871507169101803094000930D6
:0A03B0009300283083129400080027
:0E03BA00831203136E088A006D08820008008B
:1003C80083160313BB0107303B020318172A3B08A7
:1003D800263E84000008BD000A30F4003D08F00005
:1003E800D62070088316BC00BC0D3C10BC0D3C1018
:1003F800BC0D3C10BC0D3C100A30F4003D08F00068
:10040800D6207808F0000F30F00583163C08F00479
:100418007008BA000630BE003B08BF007008C00074
:080428000021BB0AE7290800CE
:1004300083160313BB0107303B0203182D2A3B0828
:10044000663EBC000630BE003B08BF0055213C089C
:0C045000840070088000BB0A1B2A080012
:10045C00023083160313BE000130BF002030C000F1
:10046C00142183126608F000F00CF013F00CF0135A
:10047C00F00CF013F00CF0130F30F0057008303E58
:10048C008316C200BB200F3083126605F000700883
:10049C00303E8316C200BB203A30C200BB20831210
:1004AC006708F000F00CF013F00CF013F00CF013E4
:1004BC00F00CF0130F30F0057008303E8316C200BC
:1004CC00BB200F3083126705F0007008303E831696
:1004DC00C200BB203A30C200BB2083126808F00077
:1004EC00F00CF013F00CF013F00CF013F00CF01304
:1004FC000F30F0057008303E8316C200BB200F3061
:10050C0083126805F0007008303E8316C200BB20D1
:02051C000800D5
:10051E0083160313810103178801890183120313C4
:10052E0085018316850183128601013083168600AC
:10053E00831287018316870183128801831688012F
:10054E0083128C0181210130C30030200C308316C0
:10055E00C300302001308316BE000530BF00A0302E
:10056E00C00014210230BE000230BF00A830C0000F
:06057E001421D021080049
:10058400DD218A110A128000840AED0A0319EE0A99
:08059400F003031DC22A080058
:10059C00831203136A08F000F00CF013F00CF01344
:1005AC00F00CF013F00CF0130A30F400E7200F30CD
:1005BC006A05F100710870078316BB000130BE009C
:1005CC000130BF002D30C000142101303B02F3007C
:1005DC00F401031CF4037308F0007408F100F00D2F
:1005EC00F10D7010F00DF10D70107008363EBE005C
:1005FC00C4202D30C200BB2083126B08F000F00C1D
:10060C00F013F00CF013F00CF013F00CF0130F309F
:10061C00F0057008303E8316C200BB200F308312E9
:10062C006B05F0007008303E8316C200BB202D30E5
:10063C00C200BB203330BE00C42083126908F00016
:10064C00F00CF013F00CF013F00CF013F00CF013A2
:10065C000F30F0057008303E8316C200BB200F30FF
:10066C0083126905F0007008303E8316C200BB206F
:02067C00080074
:10067E00F0238F220630FB001330FC00AD30FD005E
:10068E00FD0B472BFC0B472BFB0B472B00000000F1
:10069E0001308316C300302018222E22CE220430C1
:1006AE00FB000C30FC003330FD00FD0B5C2BFC0B13
:1006BE005C2BFB0B5C2B0000000083120618842BB6
:1006CE000630FB001330FC00AD30FD00FD0B6D2B32
:1006DE00FC0B6D2BFB0B6D2B00000000E421063094
:1006EE00FB001330FC00AD30FD00FD0B7C2BFC0B32
:0E06FE007C2BFB0B7C2B00000000532B852B6C
:1007E000203084004D3083120313F0008B30ED0075
:1007F0000330EE00C222A030840018300313F00052
:0C080000D830ED000330EE00C2220800EA
:0C071600543469346D3465343A340034D6
:0E0722000C341E3428341834043405340434E6
:0C07300044346134743465343A340034CD
:06073C00323430340034B9
:100742004A3461346E3400344634653462340034E1
:100752004D346134723400344134703472340034B4
:100762004A3475346E3400344A3475346C3400348F
:100772004134753467340034533465347034003492
:100782004F346334743400344E346F34763400346E
:1007920044346534633400340034003400340034AB
:0E07A2000034003400340034003400340034DD
:1007B000573465346C3463346F346D3465340034CD
:1007C00049346E3469347434693461346C34693456
:1007D0007A3469346E3467342E342E342E34003437
:04400E00F22F000786
:00000001FF
