:020000006B296A
:10000800FF00030E8301B7000A08B8008A017008D0
:10001800A0000408A1008C1D40288316141D1B286D
:1000280083122B082D3E84000008930014168316B3
:1000380014193E28941A262801308312AA0013089E
:10004800B60014168316941E3E2883122A08013A15
:10005800031D32281308AB00AA013E282B08233EB3
:100068008400130880002B08063A031D3D28013040
:10007800AC00141683128C118D1D46281308B60087
:100088008D1114162008F0002108840038088A0011
:0A009800370E8300FF0E7F0E0900F3
:1000A20083120313071087100714000000000000DA
:0400B2000000080042
:1000B60083120313F1010830710203187B2883129F
:1000C6003F186728071168280715BF0CBF13871448
:1000D60000004008031976287108073A031D7628A0
:1000E600831607157928831287100000F10A5E2807
:0200F600080000
:1000F800831603130715F401F3010830730203187C
:100108009C2883128714000087100000F201071949
:10011800F20A7308F1007208F000710803199828B0
:10012800F00D7010FF3E92287008F404F30A81283D
:0A013800831607117408F000080098
:1001420083120313071000000000000000000800E3
:10015200831603130716871583123D08F000F00D6E
:10016200701070088316930036308312940080302A
:100172008316940083128C1183168C1583128D11B1
:0A01820083168D15C0308B000800B5
:10018C00831203133D1451203D08BF000130C00001
:10019C005B207C2070088312BE00A1203E08F0007A
:0201AC00080049
:1001AE0051203D08BF00C0015B20831203133E089F
:0A01BE00BF00C0015B20A120080073
:0E01C8008312031335088A00340882000800F1
:1001D6008D3083120313BD00C620390884007008D1
:1001E60080008930BD00C6203A088400700880006F
:1001F6008730BD00C6203B088400700880000800D8
:10020600853083120313BD00C620390884007008A8
:1002160080008330BD00C6203A0884007008800044
:100226008130BD00C6203B088400700880000800AD
:100236008C3083120313BD003908BE00D7208830E6
:10024600BD003A08BE00D7208630BD003B08BE0080
:0E025600D7208A30BD003C08BE00D72008002B
:10026400E4208A110A128000840AB40A0319B50A28
:08027400F003031D322908000C
:10027C0083160317880189018101831203138501F9
:10028C0083168501831286018316860183128701EA
:10029C008316870183128801831688018312220832
:0602AC00BD00A9200800BE
:1002B200843083120313BD003908BE00D720823078
:1002C200BD003A08BE00D7208030BD003B08BE000A
:0402D200D720080029
:1002D600063083120313A200A301A401A501A601FF
:1002E600A701A801A901AA01AB01AC01AD01AE01AC
:1002F600AF01B001B101B201B3013E212D3083122D
:10030600B9002E30BA002F30BB0003213030B900BF
:100316003130BA003230BB00EB202C08013A031D05
:10032600A529AC012308B9002408BA002508BB009A
:1003360059212608B9002708BA002808BB00290851
:08034600BC001B218129A6293E
:04400E00F22F000786
:00000001FF
